{
  "_format": "hh-sol-artifact-1",
  "contractName": "GravatarRegistry",
  "sourceName": "contracts/Gravity.sol",
  "abi": [
    {
      "constant": false,
      "inputs": [
        {
          "name": "_imageUrl",
          "type": "string"
        }
      ],
      "name": "updateGravatarImage",
      "outputs": [],
      "payable": false,
      "stateMutability": "nonpayable",
      "type": "function"
    },
    {
      "constant": false,
      "inputs": [],
      "name": "setMythicalGravatar",
      "outputs": [],
      "payable": false,
      "stateMutability": "nonpayable",
      "type": "function"
    },
    {
      "constant": true,
      "inputs": [
        {
          "name": "owner",
          "type": "address"
        }
      ],
      "name": "getGravatar",
      "outputs": [
        {
          "name": "",
          "type": "string"
        },
        {
          "name": "",
          "type": "string"
        }
      ],
      "payable": false,
      "stateMutability": "view",
      "type": "function"
    },
    {
      "constant": true,
      "inputs": [
        {
          "name": "",
          "type": "uint256"
        }
      ],
      "name": "gravatarToOwner",
      "outputs": [
        {
          "name": "",
          "type": "address"
        }
      ],
      "payable": false,
      "stateMutability": "view",
      "type": "function"
    },
    {
      "constant": true,
      "inputs": [
        {
          "name": "",
          "type": "address"
        }
      ],
      "name": "ownerToGravatar",
      "outputs": [
        {
          "name": "",
          "type": "uint256"
        }
      ],
      "payable": false,
      "stateMutability": "view",
      "type": "function"
    },
    {
      "constant": false,
      "inputs": [
        {
          "name": "_displayName",
          "type": "string"
        }
      ],
      "name": "updateGravatarName",
      "outputs": [],
      "payable": false,
      "stateMutability": "nonpayable",
      "type": "function"
    },
    {
      "constant": false,
      "inputs": [
        {
          "name": "_displayName",
          "type": "string"
        },
        {
          "name": "_imageUrl",
          "type": "string"
        }
      ],
      "name": "createGravatar",
      "outputs": [],
      "payable": false,
      "stateMutability": "nonpayable",
      "type": "function"
    },
    {
      "constant": true,
      "inputs": [
        {
          "name": "",
          "type": "uint256"
        }
      ],
      "name": "gravatars",
      "outputs": [
        {
          "name": "owner",
          "type": "address"
        },
        {
          "name": "displayName",
          "type": "string"
        },
        {
          "name": "imageUrl",
          "type": "string"
        }
      ],
      "payable": false,
      "stateMutability": "view",
      "type": "function"
    },
    {
      "anonymous": false,
      "inputs": [
        {
          "indexed": false,
          "name": "id",
          "type": "uint256"
        },
        {
          "indexed": false,
          "name": "owner",
          "type": "address"
        },
        {
          "indexed": false,
          "name": "displayName",
          "type": "string"
        },
        {
          "indexed": false,
          "name": "imageUrl",
          "type": "string"
        }
      ],
      "name": "NewGravatar",
      "type": "event"
    },
    {
      "anonymous": false,
      "inputs": [
        {
          "indexed": false,
          "name": "id",
          "type": "uint256"
        },
        {
          "indexed": false,
          "name": "owner",
          "type": "address"
        },
        {
          "indexed": false,
          "name": "displayName",
          "type": "string"
        },
        {
          "indexed": false,
          "name": "imageUrl",
          "type": "string"
        }
      ],
      "name": "UpdatedGravatar",
      "type": "event"
    }
  ],
  "bytecode": "0x608060405234801561001057600080fd5b5061115e806100206000396000f3fe60806040526004361061008c5763ffffffff7c010000000000000000000000000000000000000000000000000000000060003504166281d6e581146100915780631d4f2c6d14610146578063359c1f721461015b57806388d0d3911461026c578063a5ac3634146102b2578063b18588fb146102f7578063cdb3344a146103aa578063d5ce24ed146104e4575b600080fd5b34801561009d57600080fd5b50610144600480360360208110156100b457600080fd5b8101906020810181356401000000008111156100cf57600080fd5b8201836020820111156100e157600080fd5b8035906020019184600183028401116401000000008311171561010357600080fd5b91908080601f016020809104026020016040519081016040528093929190818152602001838380828437600092019190915250929550610605945050505050565b005b34801561015257600080fd5b50610144610809565b34801561016757600080fd5b5061018e6004803603602081101561017e57600080fd5b5035600160a060020a0316610945565b604051808060200180602001838103835285818151815260200191508051906020019080838360005b838110156101cf5781810151838201526020016101b7565b50505050905090810190601f1680156101fc5780820380516001836020036101000a031916815260200191505b50838103825284518152845160209182019186019080838360005b8381101561022f578181015183820152602001610217565b50505050905090810190601f16801561025c5780820380516001836020036101000a031916815260200191505b5094505050505060405180910390f35b34801561027857600080fd5b506102966004803603602081101561028f57600080fd5b5035610ac7565b60408051600160a060020a039092168252519081900360200190f35b3480156102be57600080fd5b506102e5600480360360208110156102d557600080fd5b5035600160a060020a0316610ae2565b60408051918252519081900360200190f35b34801561030357600080fd5b506101446004803603602081101561031a57600080fd5b81019060208101813564010000000081111561033557600080fd5b82018360208201111561034757600080fd5b8035906020019184600183028401116401000000008311171561036957600080fd5b91908080601f016020809104026020016040519081016040528093929190818152602001838380828437600092019190915250929550610af4945050505050565b3480156103b657600080fd5b50610144600480360360408110156103cd57600080fd5b8101906020810181356401000000008111156103e857600080fd5b8201836020820111156103fa57600080fd5b8035906020019184600183028401116401000000008311171561041c57600080fd5b91908080601f016020809104026020016040519081016040528093929190818152602001838380828437600092019190915250929594936020810193503591505064010000000081111561046f57600080fd5b82018360208201111561048157600080fd5b803590602001918460018302840111640100000000831117156104a357600080fd5b91908080601f016020809104026020016040519081016040528093929190818152602001838380828437600092019190915250929550610cec945050505050565b3480156104f057600080fd5b5061050e6004803603602081101561050757600080fd5b5035610f40565b6040518084600160a060020a0316600160a060020a031681526020018060200180602001838103835285818151815260200191508051906020019080838360005b8381101561056757818101518382015260200161054f565b50505050905090810190601f1680156105945780820380516001836020036101000a031916815260200191505b50838103825284518152845160209182019186019080838360005b838110156105c75781810151838201526020016105af565b50505050905090810190601f1680156105f45780820380516001836020036101000a031916815260200191505b509550505050505060405180910390f35b33600090815260026020526040902054151561062057600080fd5b336000908152600260205260408120548154811061063a57fe5b6000918252602090912060039091020154600160a060020a0316331461065f57600080fd5b336000908152600260205260408120548154909183918390811061067f57fe5b906000526020600020906003020160020190805190602001906106a3929190611097565b507f76571b7a897a1509c641587568218a290018fbdc8b9a724f17b77ff0eec22c0c81336000848154811015156106d657fe5b9060005260206000209060030201600101856040518085815260200184600160a060020a0316600160a060020a0316815260200180602001806020018381038352858181546001816001161561010002031660029004815260200191508054600181600116156101000203166002900480156107935780601f1061076857610100808354040283529160200191610793565b820191906000526020600020905b81548152906001019060200180831161077657829003601f168201915b5050838103825284518152845160209182019186019080838360005b838110156107c75781810151838201526020016107af565b50505050905090810190601f1680156107f45780820380516001836020036101000a031916815260200191505b50965050505050505060405180910390a15050565b738d3e809fbd258083a5ba004a527159da535c8aba331461082957600080fd5b6040805160608101825260008082528251808401845260018082527f200000000000000000000000000000000000000000000000000000000000000060208381018290528086019384528651808801885283815280820192909252958501528254908101808455928052835160039091027f290decd9548b62a8d60345a988386fc84ba6bc95484008f6362f93160ef3e56381018054600160a060020a039390931673ffffffffffffffffffffffffffffffffffffffff199093169290921782559151805193959193610923937f290decd9548b62a8d60345a988386fc84ba6bc95484008f6362f93160ef3e56401929190910190611097565b506040820151805161093f916002840191602090910190611097565b50505050565b600160a060020a03811660009081526002602052604081205481546060928392918290811061097057fe5b906000526020600020906003020160010160008281548110151561099057fe5b6000918252602091829020835460408051601f60026000196101006001871615020190941684900490810187900487028201870190925281815260039094029092010192849190830182828015610a285780601f106109fd57610100808354040283529160200191610a28565b820191906000526020600020905b815481529060010190602001808311610a0b57829003601f168201915b5050845460408051602060026001851615610100026000190190941693909304601f810184900484028201840190925281815295975086945092508401905082828015610ab65780601f10610a8b57610100808354040283529160200191610ab6565b820191906000526020600020905b815481529060010190602001808311610a9957829003601f168201915b505050505090509250925050915091565b600160205260009081526040902054600160a060020a031681565b60026020526000908152604090205481565b336000908152600260205260409020541515610b0f57600080fd5b3360009081526002602052604081205481548110610b2957fe5b6000918252602090912060039091020154600160a060020a03163314610b4e57600080fd5b3360009081526002602052604081205481549091839183908110610b6e57fe5b90600052602060002090600302016001019080519060200190610b92929190611097565b507f76571b7a897a1509c641587568218a290018fbdc8b9a724f17b77ff0eec22c0c813384600085815481101515610bc657fe5b90600052602060002090600302016002016040518085815260200184600160a060020a0316600160a060020a031681526020018060200180602001838103835285818151815260200191508051906020019080838360005b83811015610c36578181015183820152602001610c1e565b50505050905090810190601f168015610c635780820380516001836020036101000a031916815260200191505b50838103825284546002600019610100600184161502019091160480825260209091019085908015610cd65780601f10610cab57610100808354040283529160200191610cd6565b820191906000526020600020905b815481529060010190602001808311610cb957829003601f168201915b5050965050505050505060405180910390a15050565b3360009081526002602052604090205415610d0657600080fd5b604080516060810182523381526020808201858152928201849052600080546001818101808455838052855160039093027f290decd9548b62a8d60345a988386fc84ba6bc95484008f6362f93160ef3e56381018054600160a060020a039590951673ffffffffffffffffffffffffffffffffffffffff19909516949094178455965180519497929691959194610dc4937f290decd9548b62a8d60345a988386fc84ba6bc95484008f6362f93160ef3e56401929190910190611097565b5060408201518051610de0916002840191602090910190611097565b505050036000818152600160209081526040808320805473ffffffffffffffffffffffffffffffffffffffff191633908117909155808452600283528184208590558151858152808401829052608092810183815289519382019390935288519596507f9ab3aefb2ba6dc12910ac1bce4692cf5c3c0d06cff16327c64a3ef78228b130b95879592948a948a949092606085019260a086019290880191908190849084905b83811015610e9d578181015183820152602001610e85565b50505050905090810190601f168015610eca5780820380516001836020036101000a031916815260200191505b50838103825284518152845160209182019186019080838360005b83811015610efd578181015183820152602001610ee5565b50505050905090810190601f168015610f2a5780820380516001836020036101000a031916815260200191505b50965050505050505060405180910390a1505050565b6000805482908110610f4e57fe5b600091825260209182902060039091020180546001808301805460408051601f6002600019968516156101000296909601909316949094049182018790048702840187019052808352600160a060020a039093169550929390929190830182828015610ffb5780601f10610fd057610100808354040283529160200191610ffb565b820191906000526020600020905b815481529060010190602001808311610fde57829003601f168201915b50505060028085018054604080516020601f600019610100600187161502019094169590950492830185900485028101850190915281815295969594509092509083018282801561108d5780601f106110625761010080835404028352916020019161108d565b820191906000526020600020905b81548152906001019060200180831161107057829003601f168201915b5050505050905083565b828054600181600116156101000203166002900490600052602060002090601f016020900481019282601f106110d857805160ff1916838001178555611105565b82800160010185558215611105579182015b828111156111055782518255916020019190600101906110ea565b50611111929150611115565b5090565b61112f91905b80821115611111576000815560010161111b565b9056fea165627a7a72305820a6a0fd36edfa3bcc169dd84fdd140f3a85e3bb4b3377ff45e9f797d4a2c64a250029",
  "linkReferences": {},
  "deployedLinkReferences": {}
}